:020000040000fa
:080000000002040000000000f2
:020000040000fa
:0400080044030000ad
:020000040000fa
:04000c0044030000a9
:020000040000fa
:0400100044030000a5
:020000040000fa
:0400140044030000a1
:020000040000fa
:04001800440300009d
:020000040000fa
:04001c004403000099
:020000040000fa
:040020004403000095
:020000040000fa
:040024004403000091
:020000040000fa
:04002800440300008d
:020000040000fa
:04002c004403000089
:020000040000fa
:040030004403000085
:020000040000fa
:040034000c030000b9
:020000040000fa
:04003800440300007d
:020000040000fa
:04003c004403000079
:020000040000fa
:040040004403000075
:020000040000fa
:040044004403000071
:020000040000fa
:04004800440300006d
:020000040000fa
:04004c004403000069
:020000040000fa
:040050004403000065
:020000040000fa
:040054004403000061
:020000040000fa
:04005800440300005d
:020000040000fa
:04005c004403000059
:020000040000fa
:040060004403000055
:020000040000fa
:040064004403000051
:020000040000fa
:04006800440300004d
:020000040000fa
:04006c004403000049
:020000040000fa
:040070004403000045
:020000040000fa
:040074004403000041
:020000040000fa
:04007800440300003d
:020000040000fa
:04007c004403000039
:020000040000fa
:040080004403000035
:020000040000fa
:040084004403000031
:020000040000fa
:04008800440300002d
:020000040000fa
:04008c004403000029
:020000040000fa
:040090004403000025
:020000040000fa
:040094004403000021
:020000040000fa
:04009800440300001d
:020000040000fa
:04009c004403000019
:020000040000fa
:0400a0004403000015
:020000040000fa
:0400a4004403000011
:020000040000fa
:0400a800440300000d
:020000040000fa
:0400ac004403000009
:020000040000fa
:0400b0004403000005
:020000040000fa
:0400b4004403000001
:020000040000fa
:0400b80044030000fd
:020000040000fa
:0400bc0044030000f9
:020000040000fa
:0400c00044030000f5
:020000040000fa
:0400c40044030000f1
:020000040000fa
:0400c80044030000ed
:020000040000fa
:0400cc0044030000e9
:020000040000fa
:0400d00044030000e5
:020000040000fa
:0400d40044030000e1
:020000040000fa
:0400d80044030000dd
:020000040000fa
:0400dc0044030000d9
:020000040000fa
:0400e00044030000d5
:020000040000fa
:0400e40044030000d1
:020000040000fa
:0400e80044030000cd
:020000040000fa
:0400ec0044030000c9
:020000040000fa
:0400f00044030000c5
:020000040000fa
:0400f40044030000c1
:020000040000fa
:0400f80044030000bd
:020000040000fa
:0400fc0044030000b9
:020000040000fa
:0401000044030000b4
:020000040000fa
:0401040044030000b0
:020000040000fa
:0401080044030000ac
:020000040000fa
:04010c0044030000a8
:020000040000fa
:0401100044030000a4
:020000040000fa
:0401140044030000a0
:020000040000fa
:04011800440300009c
:020000040000fa
:04011c004403000098
:020000040000fa
:040120004403000094
:020000040000fa
:040124004403000090
:020000040000fa
:04012800440300008c
:020000040000fa
:04012c004403000088
:020000040000fa
:040130004403000084
:020000040000fa
:040134004403000080
:020000040000fa
:04013800440300007c
:020000040000fa
:04013c004403000078
:020000040000fa
:040140004403000074
:020000040000fa
:040144004403000070
:020000040000fa
:04014800440300006c
:020000040000fa
:04014c004403000068
:020000040000fa
:040150004403000064
:020000040000fa
:040154004403000060
:020000040000fa
:04015800440300005c
:020000040000fa
:04015c004403000058
:020000040000fa
:040160004403000054
:020000040000fa
:040164004403000050
:020000040000fa
:04016800440300004c
:020000040000fa
:04016c004403000048
:020000040000fa
:040170004403000044
:020000040000fa
:040174004403000040
:020000040000fa
:04017800440300003c
:020000040000fa
:04017c004403000038
:020000040000fa
:040180004403000034
:020000040000fa
:040184004403000030
:020000040000fa
:04018800440300002c
:020000040000fa
:04018c004403000028
:020000040000fa
:040190004403000024
:020000040000fa
:040194004403000020
:020000040000fa
:04019800440300001c
:020000040000fa
:04019c004403000018
:020000040000fa
:0401a0004403000014
:020000040000fa
:0401a4004403000010
:020000040000fa
:0401a800440300000c
:020000040000fa
:0401ac004403000008
:020000040000fa
:0401b0004403000004
:020000040000fa
:0401b4004403000000
:020000040000fa
:0401b80044030000fc
:020000040000fa
:0401bc0044030000f8
:020000040000fa
:0401c00044030000f4
:020000040000fa
:0401c40044030000f0
:020000040000fa
:0401c80044030000ec
:020000040000fa
:0401cc0044030000e8
:020000040000fa
:0401d00044030000e4
:020000040000fa
:0401d40044030000e0
:020000040000fa
:0401d80044030000dc
:020000040000fa
:0401dc0044030000d8
:020000040000fa
:0401e00044030000d4
:020000040000fa
:0401e40044030000d0
:020000040000fa
:0401e80044030000cc
:020000040000fa
:0401ec0044030000c8
:020000040000fa
:0401f00044030000c4
:020000040000fa
:0401f40044030000c0
:020000040000fa
:0401f80044030000bc
:020000040000fa
:0401fc0044030000b8
:020000040000fa
:0402080044030000ab
:020000040000fa
:04020c0044030000a7
:020000040000fa
:0402100044030000a3
:020000040000fa
:04021400440300009f
:020000040000fa
:04021800440300009b
:020000040000fa
:04021c004403000097
:020000040000fa
:040220004403000093
:020000040000fa
:04022400440300008f
:020000040000fa
:04022800440300008b
:020000040000fa
:04022c004403000087
:020000040000fa
:040230004403000083
:020000040000fa
:040234000c030000b7
:020000040000fa
:04023800440300007b
:020000040000fa
:04023c004403000077
:020000040000fa
:040240004403000073
:020000040000fa
:04024400440300006f
:020000040000fa
:04024800440300006b
:020000040000fa
:04024c004403000067
:020000040000fa
:040250004403000063
:020000040000fa
:04025400440300005f
:020000040000fa
:04025800440300005b
:020000040000fa
:04025c004403000057
:020000040000fa
:040260004403000053
:020000040000fa
:04026400440300004f
:020000040000fa
:04026800440300004b
:020000040000fa
:04026c004403000047
:020000040000fa
:040270004403000043
:020000040000fa
:04027400440300003f
:020000040000fa
:04027800440300003b
:020000040000fa
:04027c004403000037
:020000040000fa
:040280004403000033
:020000040000fa
:04028400440300002f
:020000040000fa
:04028800440300002b
:020000040000fa
:04028c004403000027
:020000040000fa
:040290004403000023
:020000040000fa
:04029400440300001f
:020000040000fa
:04029800440300001b
:020000040000fa
:04029c004403000017
:020000040000fa
:0402a0004403000013
:020000040000fa
:0402a400440300000f
:020000040000fa
:0402a800440300000b
:020000040000fa
:0402ac004403000007
:020000040000fa
:0402b0004403000003
:020000040000fa
:0402b40044030000ff
:020000040000fa
:0402b80044030000fb
:020000040000fa
:0402bc0044030000f7
:020000040000fa
:0402c00044030000f3
:020000040000fa
:0402c40044030000ef
:020000040000fa
:0402c80044030000eb
:020000040000fa
:0402cc0044030000e7
:020000040000fa
:0402d00044030000e3
:020000040000fa
:0402d40044030000df
:020000040000fa
:0402d80044030000db
:020000040000fa
:0402dc0044030000d7
:020000040000fa
:0402e00044030000d3
:020000040000fa
:0402e40044030000cf
:020000040000fa
:0402e80044030000cb
:020000040000fa
:0402ec0044030000c7
:020000040000fa
:0402f00044030000c3
:020000040000fa
:0402f40044030000bf
:020000040000fa
:0402f80044030000bb
:020000040000fa
:0402fc0044030000b7
:020000040000fa
:0403000044030000b2
:020000040000fa
:0403040044030000ae
:020000040000fa
:0403080044030000aa
:020000040000fa
:04030c0044030000a6
:020000040000fa
:0403100044030000a2
:020000040000fa
:04031400440300009e
:020000040000fa
:04031800440300009a
:020000040000fa
:04031c004403000096
:020000040000fa
:040320004403000092
:020000040000fa
:04032400440300008e
:020000040000fa
:04032800440300008a
:020000040000fa
:04032c004403000086
:020000040000fa
:040330004403000082
:020000040000fa
:04033400440300007e
:020000040000fa
:04033800440300007a
:020000040000fa
:04033c004403000076
:020000040000fa
:040340004403000072
:020000040000fa
:04034400440300006e
:020000040000fa
:04034800440300006a
:020000040000fa
:04034c004403000066
:020000040000fa
:040350004403000062
:020000040000fa
:04035400440300005e
:020000040000fa
:04035800440300005a
:020000040000fa
:04035c004403000056
:020000040000fa
:040360004403000052
:020000040000fa
:04036400440300004e
:020000040000fa
:04036800440300004a
:020000040000fa
:04036c004403000046
:020000040000fa
:040370004403000042
:020000040000fa
:04037400440300003e
:020000040000fa
:04037800440300003a
:020000040000fa
:04037c004403000036
:020000040000fa
:040380004403000032
:020000040000fa
:04038400440300002e
:020000040000fa
:04038800440300002a
:020000040000fa
:04038c004403000026
:020000040000fa
:040390004403000022
:020000040000fa
:04039400440300001e
:020000040000fa
:04039800440300001a
:020000040000fa
:04039c004403000016
:020000040000fa
:0403a0004403000012
:020000040000fa
:0403a400440300000e
:020000040000fa
:0403a800440300000a
:020000040000fa
:0403ac004403000006
:020000040000fa
:0403b0004403000002
:020000040000fa
:0403b40044030000fe
:020000040000fa
:0403b80044030000fa
:020000040000fa
:0403bc0044030000f6
:020000040000fa
:0403c00044030000f2
:020000040000fa
:0403c40044030000ee
:020000040000fa
:0403c80044030000ea
:020000040000fa
:0403cc0044030000e6
:020000040000fa
:0403d00044030000e2
:020000040000fa
:0403d40044030000de
:020000040000fa
:0403d80044030000da
:020000040000fa
:0403dc0044030000d6
:020000040000fa
:0403e00044030000d2
:020000040000fa
:0403e40044030000ce
:020000040000fa
:0403e80044030000ca
:020000040000fa
:0403ec0044030000c6
:020000040000fa
:0403f00044030000c2
:020000040000fa
:0403f40044030000be
:020000040000fa
:0403f80044030000ba
:020000040000fa
:0403fc0044030000b6
:020000040000fa
:10040000cfe620000e7f22000e01880000000000d1
:10041000000020000000e000020032000001200087
:100420002002880014000700990007000000e00087
:1004300003003a006079220001002000020037002a
:100440000000200001002000810f70000100320038
:1004500014000700000020000000e000020032004d
:1004600000000200000000005c2702000000000005
:100470000040da000000fe004440a900e002200035
:100480000000e000030032000020200090018800fe
:100490004440a800000006008a1f78008b1f7800e7
:1004a00000000600a1028800800478000000eb0034
:1004b0001f003700e284440054a0b4009905ba003c
:1004c000e284440054a0b4009906ba00e2844400d7
:1004d00054a0b4000006eb00476fde00fd07b20039
:1004e000ae018800636ce10003003a00eaff0700f8
:1004f0000000eb000e003700606ce10008003a00dd
:10050000004deb000a05e800020039003420ec0041
:100510000af0a0008b05e900f9ff3e000400370057
:100520006168e100010032000086eb000b0007006b
:1005300019c7ba001905ba000e04e00003003a001a
:100540000a00e000dbff3a0000000600fe07b200f0
:10055000ae0288008a047800f5ff37000cd0a300b3
:10056000e20f4d001c00390089027800354dba00b9
:100570000a05e800020039003420ec000af0a0006f
:100580008b05e9000f003200254dba000a05e8008e
:10059000020039003420ec000af0a0008b05e900cd
:1005a000080032000c00e0000600320015cdba0051
:1005b0000a05e800020039003420ec000af0a0002f
:1005c0008b05e9008984e80054a0b4000b00e0002a
:1005d000e2ff3a00000006009902ba00055d7800cb
:1005e0008b05e900f7ff3200c82ade00055d7800c0
:1005f0008b05e900f3ff32000c00e000f1ff320050
:1006000019ddba00eeff3700742704000000000077
:10061000720e0400000000003600f800809fbe004b
:10062000829fbe00849fbe00869fbe003200f800fd
:100630003400f80010002000a001880000202000f5
:10064000900188000000fa008460a900b703070049
:100650000000e00003003200082702000000000054
:10066000000000000080fa003400f9003200f900b8
:100670004f03be004f02be004f01be004f00be0040
:100680003600f900004006000040da000000fe00dd
:10069000000005008001780002003700b1597800a1
:1006a0000201e9000200e000fcff3a000000060041
:020000040000fa
:1006b00011110000222200003333000044440000e6
:1006c00055550000666600007777000088880000b6
:1006d00099990000aaaa0000bbbb0000cccc000086
:1006e000dddd0000eeee0000cecd0000acab000082
:1006f000626c0000696e00006b000000494400005d
:0c0700004c450000000000000400000058
:020000040000fa
:10070c001000fa0020079800310798004207980063
:10071c00530798006407980075079800e0022000c2
:10072c00bb0f0700000f78001e0078000000e000ef
:10073c000e0032004e00900000004000b40f070085
:10074c00800078001e007800410898001e00780098
:10075c00400890000000e00004003a001e00780001
:10076c001f1007000000eb00000f78001e0078003f
:10077c000000e000120032004e0090008000eb0000
:10078c000001eb00821f78009e0378007e0390002e
:10079c00ee0290005e0290000001be00be009000d0
:1007ac002e0090000b0007008f87e9001e007800d8
:1007bc008500070010002000100798000200370089
:1007cc000080eb00100798001e0090000080fa00db
:1007dc00000006001400fa00889fbe002007980055
:1007ec003107980042079800530798006407980057
:1007fc0075079800060f9800170f98001e089000b8
:10080c00c0089000110798001e0890004008900046
:10081c00cf80de0000007800610060008004eb00f7
:10082c00000478000800be00e00f5000e08f580074
:10083c000800320011028000f0f12f0000806000ef
:10084c000050a00010028800000000000000000012
:10085c00ffff37001e089000c00890004e0190006a
:10086c00f0ff2700000041000000400080804000a5
:10087c001e089000111098003e0090000000e0004f
:10088c00190032000000eb00000f78000d0037005b
:10089c003e0090001e004000904078001e08900022
:1008ac001e0040007a004000014878003e00900095
:1008bc001e004000104078000004e00005003200eb
:1008cc001e0fe8001e007800e70f5000f0ff360006
:1008dc0001003700000000001e0890008040eb0073
:1008ec0011609800030037001e0890008040eb0058
:1008fc00215898007e009000e40f50000200360052
:10090c0040002000700798001e089000fe00900028
:10091c00310898001e089000fe00900021109800ed
:10092c001e0890008000eb00311098001e0890000b
:10093c000080e800b81007001e0890006c00400012
:10094c00b51007001e0890009e089000410098000a
:10095c007e009000e50010001e08900061009800d9
:10096c001e0890009e089000110898001e09900027
:10097c006000b80040119800511198001e089000ba
:10098c008040eb00416898006e019000ae00900032
:10099c001e009000d90f0700800078001e08900000
:1009ac00010878000e0890000000e00003003200ff
:1009bc000e0890009e089000010878004f04be00bd
:1009cc000080fa00000006000200fa00000f780018
:1009dc0052100700404080000000e80040408800b2
:1009ec00004080000000e00007003a009e00780004
:1009fc000140880040408000e10f50000d003a009b
:100a0c00c10407000b003700704080000000e000bc
:100a1c0008003a0000408000b00890001e007800ea
:100a2c0030089000808f500002003e009e0078003d
:100a3c0001408800b04080000000e800b040880011
:100a4c001e007800b008900060408000808f50003d
:100a5c00030036001e0078003008900060408800cb
:100a6c001e81e8001e007800300890006a00b90072
:100a7c008000780080e02000008040008200780038
:100a8c006c10070032100700704080000000e0007e
:100a9c000900320000408000b00890001e00780071
:100aac0030089000808f50000300310008270200ae
:100abc0000000000000000000080fa0000000600aa
:100acc000400fa0010079800141007001e00900094
:100adc000000e00002003a000040800001003700f6
:100aec001e009000000f78001e80e800a110070087
:100afc001e007800200890000000e0000300320087
:100b0c009e0078006c8040009a100700b040800076
:100b1c000000e800b0408800004080009e00780093
:100b2c00808f500008003a001e80e800800078009a
:100b3c0080e520003f100700304080000000e800f6
:100b4c003040880006003700404080000000e9007b
:100b5c00404088001e0078009f040700a70407008f
:100b6c00fb0f0700704080000000e0001200320014
:100b7c00004080009e007800808f50000e003a00ec
:100b8c00e04080000000e00008003200110280000c
:100b9c00f0f12f00008060000050a00010028800cf
:100bac000000000000000000ffff370008270200d3
:100bbc0000000000000000000080fa0000000600a9
:100bcc000400fa00100798000000eb00000f7800fa
:100bdc001e0090000000e00011003200e040800098
:100bec000000e0000800320011028000f0f12f003c
:100bfc00008060000050a00010028800000000007f
:100c0c0000000000ffff37009a0107008000eb0096
:100c1c001e009000250807009c010700000f7800bb
:100c2c001e0078000000e00003003a0008270200d4
:100c3c0000000000000000000080fa000000060028
:100c4c000c00fa0040079800510798000000eb00d8
:100c5c00000f78005e009000e40f50000800360092
:100c6c0011028000f0f12f00008060000050a00005
:100c7c00100288000000000000000000ffff370099
:100c8c005e009000e40f500002003600400020008f
:100c9c0050079800a10f07004e0090000000e000e4
:100cac0002003a0000408000010037004e00900026
:100cbc00100798001e009000a010900021079800cb
:100ccc00ae0090005e009000808f5000510032000a
:100cdc00de0090002e009000808f50000c0036003b
:100cec00004080009e009000808f50000e0032006b
:100cfc0000408000b00890005e009000808f500093
:100d0c0009003e0010002000000f7800060037009c
:100d1c00004080009e009000808f500002003a003e
:100d2c0010002000000f78001e009000b00890000a
:100d3c00310798001e009000a01090001e0090003b
:100d4c0030089000808f500003003a001e00900085
:100d5c00de009000310898001e009000de0090002c
:100d6c00211098001e009000600090000000e00030
:100d7c00040035005e009000e50010001e0090009d
:100d8c00610098001e009000500190003e00900001
:100d9c006a00b9008000780080e0200000804000ec
:100dac00800f510015003a001e0090000080e800f2
:100dbc00f00f07001e009000b0089000604080000b
:100dcc00808f5000030036001e0090003008900009
:100ddc00604088001e0090000081e8001e0090001a
:100dec00300890006a00b9008000780080e0200094
:100dfc0000804000820078008e0f07001e007800f3
:100e0c000000e00003003200082702000000000090
:100e1c00000000004e0f07000080fa0000000600e2
:100e2c000400fa00100798003c0f07001e00900009
:100e3c000000e00002003a00004080000100370092
:100e4c001e009000000f78001e80e800c90f0700fc
:100e5c001e007800200890000000e0000300320023
:100e6c009e0078006c804000c20f07001e80e800d6
:100e7c008000780020e620006e0f07001e0078002e
:100e8c0040689000e14f500003003a001e007800cb
:100e9c008040eb00416898002d0f070070408000e7
:100eac000000e000030032001c0f0700d303070012
:100ebc00270f0700004080009e007800808f5000b4
:100ecc0019003a00704080000000e0000f00320072
:100edc00e04080000000e0000800320011028000b9
:100eec00f0f12f00008060000050a000100288007c
:100efc000000000000000000ffff37000827020080
:100f0c000000000000000000070037001173800093
:100f1c0040408000808f500002003a000028ef0013
:100f2c0001003700f90107000080fa0000000600fc
:100f3c000600fa00200798000000eb00000f780074
:100f4c00ae009000110798002e0090000000e00009
:100f5c0008003a0011028000f0f12f0000806000c0
:100f6c000050a000100288000000000000000000eb
:100f7c00ffff37001e009000d000900020e62000fc
:100f8c00808f50000b003a001e009000a0089000cb
:100f9c00e0e42000808f5000060032001e0090001c
:100fac00200890000000e00002003a001000200031
:100fbc00000f78001e0078000080fa000000060088
:100fcc000400fa00100798009e009000010f7800b2
:100fdc001e0090000000e00008003a0011028000a2
:100fec00f0f12f00008060000050a000100288007b
:100ffc000000000000000000ffff370000408000f0
:10100c009e007800808f5000250032001e00780072
:10101c000000e00022003200c00e07001e00780025
:10102c00c3ff07000000e0001c0032001e80e80037
:10103c00500f07001e007800b00890006040800040
:10104c00808f5000030036001e007800300890009e
:10105c00604088001e81e8001e0078003008900077
:10106c006a00b9008000780080e020000080400019
:10107c0082007800ef0e07001e007800b008900088
:10108c000040800030089000808f50000300390031
:10109c00082702000000000000000000ac0e070052
:1010ac000080fa00000006000800fa0030079800e3
:1010bc000000eb00000f7800be00900011079800b4
:1010cc003e0090000000e00008003a001102800091
:1010dc00f0f12f00008060000050a000100288008a
:1010ec000000000000000000ffff37000000eb00d4
:1010fc00200798001e0090008dff07000000e00004
:10110c0026003200e04080000000e0001e003a00a3
:10111c001e009000b0089000004080003008900045
:10112c00808f50000200390010002000000f780062
:10113c001e0090000080e8000e0f07001e009000bb
:10114c00b008900060408000808f50000300360093
:10115c001e00900030089000604088001e00900037
:10116c000081e8001e009000300890006a00b90071
:10117c008000780080e02000008040008200780031
:10118c00ac0e0700050037001e0090006c004000fc
:10119c0080007800e0e42000a60e07001e00780016
:1011ac000080fa00000006000200fa00a581200071
:1011bc000002eb008001eb00a2052000e1372800c3
:1011cc0020e720004efd0700000f78001e0078007d
:1011dc00e10f50000e003a0011028000f0f12f00d8
:1011ec00008060000050a000100288000000000089
:1011fc00000000000080eb00c040880010002000c0
:10120c00704088000a28ef00090e07000b00370019
:10121c001e007800e10f400008003a001102800027
:10122c00f0f12f00008060000050a0001002880038
:10123c000000000000000000ffff37000080fa00f3
:10124c00000006000000fa0011028000f0f12f00ef
:10125c00008060000050a000100288000000000018
:10126c00000000000e28ef00090e07000080fa00b5
:10127c00000006000000fa00e04080000000e800da
:10128c00e04088000080fa00000006000600fa002a
:10129c000000eb00000f78000000eb001007980036
:1012ac00e04080000000e00008003a0011028000dd
:1012bc00f0f12f00008060000050a00010028800a8
:1012cc000000000000000000ffff3700130e0700b5
:1012dc00e04080000000e900e0408800e040800031
:1012ec000000e00045003a00404080000000e000b3
:1012fc004200320021003700a072800030009000c4
:10130c00000f78009e0078006c804000990e07005a
:10131c001e80e800970e07001e007800b0089000b1
:10132c0060408000808f5000030036001e00780063
:10133c0030089000604088001e81e8001e00780094
:10134c00300890006a00b9008000780080e020002e
:10135c000080400082007800360e07001e007800e6
:10136c00b00890000040800030089000808f500042
:10137c00020039001000200090408800707280003c
:10138c000000e000dcff3a001e0078000000e000e6
:10139c00010032009902070081408000210798006b
:1013ac002e0090000000e0000c0032005c000700f2
:1013bc000000e00002003200100020009040880085
:1013cc002e0090000000e900200798002e009000ed
:1013dc000000e000f5ff3a001028ef00904080007c
:1013ec000000e000050032001000200010079800fb
:1013fc00082702000000000000000000d40d0700c8
:10140c001e0090000080fa00000006000200fa00a6
:10141c00c20d070051408000010f7800cc0d070071
:10142c001e0078000080fa00000006000400fa009c
:10143c000000eb00000f780051408000110798006d
:10144c001e0090000080fa00000006000000fa0068
:10145c00404080000080fa00000006000400fa0002
:10146c00100798001e0090000000e00002003a00f7
:10147c0000408000010037001e009000000f780033
:10148c001e0078000000e00008003a001102800005
:10149c00f0f12f00008060000050a00010028800c6
:1014ac000000000000000000ffff37009e007800e5
:1014bc007a8040000080fa00000006000400fa0068
:1014cc00100798000000eb00000f7800e04080004f
:1014dc000000e0000800320011028000f0f12f0043
:1014ec00008060000050a000100288000000000086
:1014fc0000000000ffff37005eff07008140800006
:10150c001e00900000804000804088005fff0700b4
:10151c00000f78001e0078000080fa000000060022
:10152c000a00fa000000eb00000f7800e040800099
:10153c000000e0006f003a00504080000000e8001e
:10154c00100798009e009000514088001e009000eb
:10155c000000e00016003a001040800010007800f7
:10156c000000e0000800320011028000f0f12f00b2
:10157c00008060000050a0001002880000000000f5
:10158c0000000000ffff3700114080002107980089
:10159c002040800010408800ae0090002140880060
:1015ac00a04080000000e800a04088001302070063
:1015bc00c04080009e009000808f50003c0039009d
:1015cc00010037000000000010408000100078007f
:1015dc000000e00003003a000080eb00c0408800ef
:1015ec003300370010408000300090003000900035
:1015fc00300798003e009000900090004107980042
:10160c009e0090004e009000808f5000030031002f
:10161c00ce009000c1408800250037003e009000ad
:10162c000080e800d30d07003e00900020089000d9
:10163c000000e000030032003e0090006c0040000f
:10164c00cc0d07003e009000b00890006040800078
:10165c00808f5000030036003e0090003008900050
:10166c00604088003e0090000081e8003e00900041
:10167c00300890006a00b9008000780080e02000fb
:10168c0000804000820078006a0d07003e00900048
:10169c00b00890000040800030089000808f50000f
:1016ac00c8ff390010002000000f7800c6ff37007b
:1016bc0000408000300890006a00b900800078007b
:1016cc0080e020000080400010007800e10f500006
:1016dc000200360010002000000f780090408000bf
:1016ec000000e0000600320010002000000f78001f
:1016fc0003003700804080000000e8008040880034
:10170c001e0078000080fa00000006000400fa00b9
:10171c00e04080000000e0000300320010002000d8
:10172c0090408800340037001228ef0061408000a0
:10173c00010f78000c0037001e0078000000e0005c
:10174c0008003a0011028000f0f12f0000806000c8
:10175c000050a000100288000000000000000000f3
:10176c00ffff37001e0fe9001e0078006a00b90069
:10177c008000780080e0200000804000100078009d
:10178c000000e000ecff32001e0078006a00b90097
:10179c008000780080e02000008040001007980056
:1017ac001e00900010009000900090001e00900011
:1017bc00110098001e009000900090001e009000f8
:1017cc0064004000808f500005003a001e0090001d
:1017dc0010009000900090001e00900011009800e6
:1017ec001e00900010009000300090000040880017
:1017fc009e007800614088000080fa00000006001e
:10180c000400fa00000f7800110798001e00780001
:10181c000000e00008003a0011028000f0f12f00f7
:10182c00008060000050a000100288000000000042
:10183c0000000000ffff3700004080006c004000fb
:10184c00800078001e007800180d070011002000a1
:10185c001e009000150507000080fa00000006002d
:10186c000600fa00000f7800110798002207980074
:10187c001e0078000000e00008003a001102800011
:10188c00f0f12f00008060000050a00010028800d2
:10189c000000000000000000ffff3700e040800067
:1018ac000000e00008003a0011028000f0f12f0067
:1018bc00008060000050a0001002880000000000b2
:1018cc0000000000ffff3700004080009e009000e9
:1018dc0001f0a00061009800004080006c00400006
:1018ec00800078001e007800d20c07001100200048
:1018fc002e009000ed0407000080fa0000000600a6
:10190c000600fa00200798002e009000300090008e
:10191c0030009000100798001e0090000000e000be
:10192c0008003a0011028000f0f12f0000806000e6
:10193c000050a00010028800000000000000000011
:10194c00ffff37001e0090006c004000090d0700df
:10195c00e04080000000e00016003a001e009000fd
:10196c000080e800030d07001e009000b0089000f6
:10197c0060408000808f5000030036001e009000f5
:10198c0030089000604088001e0090000081e80044
:10199c001e009000300890006a00b90080007800aa
:1019ac0080e020000080400082007800a10c07003d
:1019bc00050037001e0090006c004000800078008d
:1019cc00e0e420009b0c07001e009000b008900083
:1019dc000040800030089000808f500005003600d9
:1019ec0010002000000f78001000200090408800ac
:1019fc00020037000000eb00000f78001e0078009a
:101a0c000080fa00000006000600fa00100798009b
:101a1c0021079800e04080000000e00008003a0038
:101a2c0011028000f0f12f00008060000050a00037
:101a3c00100288000000000000000000ffff3700cb
:101a4c002e0090008000780001f0a0001e00900095
:101a5c00010878001e00900030009000000f780004
:101a6c001e0078000000e00008003a00110280001f
:101a7c00f0f12f00008060000050a00010028800e0
:101a8c000000000000000000ffff37001e00900067
:101a9c00b80c07001e80e800b60c07001e0078008a
:101aac00b008900060408000808f5000030036002a
:101abc001e00780030089000604088001e81e8000d
:101acc001e007800300890006a00b9008000780091
:101adc0080e020000080400082007800550c070058
:101aec001e007800b0089000004080003008900084
:101afc00808f5000020036001000200090408800bb
:101b0c000080fa00000006000200fa00000f7800c6
:101b1c001e0078000000e00008003a00110280006e
:101b2c00f0f12f00008060000050a000100288002f
:101b3c000000000000000000ffff3700f70b07005b
:101b4c00a14080001e007800010878005140800000
:101b5c001e00780011009800fd0b07000080fa00b1
:101b6c00000006000200fa00000f7800a14080007f
:101b7c001e00780001087800514080001e0078009b
:101b8c00110098000080fa00000006000a00fa001c
:101b9c0030079800410798003e0090000000e000dc
:101bac0008003a0011028000f0f12f000080600064
:101bbc000050a0001002880000000000000000008f
:101bcc00ffff37004e0090000000e00008003a00d4
:101bdc0011028000f0f12f00008060000050a00086
:101bec00100288000000000000000000ffff37001a
:101bfc00ca0b070051408000110798003e0090006e
:101c0c00100090009e00900000805000200798006b
:101c1c004e00900010007800e10f400003003a00e5
:101c2c000000eb00000f7800220037003e0090000f
:101c3c0090007800a0408000808f50000800320097
:101c4c003e009000900090001e009000808f50008d
:101c5c0003003e0010002000000f78001500370034
:101c6c004e009000900078002e009000808f500065
:101c7c000b0036004e009000900078002e00900073
:101c8c00808050004e009000010878003e009000cb
:101c9c00b4ff07000000eb00000f780005003700d0
:101cac004e0090008000eb0001087800100020002e
:101cbc00000f7800a60b07001e0078000080fa00c9
:101ccc00000006000000fa00100020009040880080
:101cdc000080fa00000006000200fa00000f7800f5
:101cec000100370000000000250007004070800054
:101cfc00e10f5000fbff3600082702000000000037
:101d0c0000000000f8ff37000200fa000000eb00b2
:101d1c00000f7800070037001e0078006a00b90039
:101d2c008000780080e0200000804000a10b0700bc
:101d3c001e0fe8001e007800e40f5000f6ff36007e
:101d4c00a0e320009b0b070040e42000990b070048
:101d5c00e0e42000970b070080e52000950b0700be
:101d6c0020e62000930b0700a0e320001040880021
:101d7c0040e42000204088000080fa0000000600ab
:101d8c000200fa000f003700640b0700f0728000ad
:101d9c0030009000000f78001e80e800f50b070063
:101dac00404080000000e900404088003040800046
:101dbc000000e90030408800650b07001e00780029
:101dcc0005000700304080000000e000eeff3a0004
:101ddc000080fa00000006000200fa00000f7800f4
:101dec001e007800400890007d0a07001e00780055
:101dfc007b0a07000080fa00000006000200fa00cf
:101e0c0010408000100078000000e00003003a0051
:101e1c000080eb00c04088000700370010408000b5
:101e2c003000900030009000000f78001e00780009
:101e3c0010009000c04088000080fa0000000600ee
:101e4c000200fa0001408000010f78001e007800ab
:101e5c000080fa00000006000600fa002007980037
:101e6c00ae009000110798000000eb00000f780006
:101e7c002e0090000000e000420032001e00900096
:101e8c00b00890000040800030089000808f500017
:101e9c00340031001e009000600090000000e00053
:101eac00050035000040800030089000e50010006f
:101ebc001e009000610098001e00900050019000e0
:101ecc001e009000300890006a00b9008000780075
:101edc0080e0200000804000800f51001a003a0082
:101eec001e0090000080e800a20b0700004080005c
:101efc00b00890001e009000310898001e00900061
:101f0c00b008900060408000808f500003003600c5
:101f1c001e00900030089000604088001e00900069
:101f2c000081e8001e009000300890006a00b900a3
:101f3c008000780080e02000008040008200780063
:101f4c003c0b07000400370000408000b0089000f4
:101f5c001e0090003108980010002000000f78003f
:101f6c00080037001e009000a01090000040800078
:101f7c0030089000808f50000200310010002000cb
:101f8c00000f78001e0078000080fa0000000600a8
:101f9c000600fa0020079800ae0090001107980088
:101fac000000eb00000f78002e0090000000e00015
:101fbc0047003200004080009e009000808f50004f
:101fcc000800320011028000f0f12f000080600048
:101fdc000050a0001002880000000000000000006b
:101fec00ffff37001e009000301090000000e00052
:101ffc0008003a0011028000f0f12f000080600010
:10200c000050a0001002880000000000000000003a
:10201c00ffff37001e009000301090008000e90098
:10202c001e009000311098001e009000b008900027
:10203c001e00900020109000808f50002400320071
:10204c001e009000301090000000e00020003a00cc
:10205c001e0090000080e800460b07001e00900058
:10206c00a01090001e009000310898001e009000f7
:10207c0030089000e50010001e00900061009800f0
:10208c001e009000b008900060408000808f5000cf
:10209c00030036001e00900030089000604088005d
:1020ac001e0090000081e8001e0090003008900097
:1020bc006a00b9008000780080e0200000804000b9
:1020cc0082007800db0a070010002000000f780067
:1020dc001e0078000080fa00000006000c00fa00d8
:1020ec004007980051079800ce0090001107980007
:1020fc0010002000200798004e0090000000e00027
:10210c00580032001e009000301090000000e000db
:10211c0008003a0011028000f0f12f0000806000ee
:10212c000050a00010028800000000000000000019
:10213c00ffff37001e009000a01090005e00900082
:10214c00808f5000030031005e019000020f780078
:10215c00030037001e009000a0109000010f7800c3
:10216c001e009000300890009e0f50003d00320081
:10217c001e009000b01090002e009000808f500038
:10218c0038003a00004080009e009000808f500084
:10219c0008003a0011028000f0f12f00008060006e
:1021ac000050a00010028800000000000000000099
:1021bc00ffff37001e009000300990003207980096
:1021cc001e0090009e007800310898001e009000c0
:1021dc00600090000000e000040035005200200078
:1021ec009e0051001e009000610098001e0090009f
:1021fc00500190003e0090006a00b9008000780009
:10220c0080e0200000804000800f510015003a0053
:10221c001e0090000080e800d60a07001e00900007
:10222c00b008900060408000808f500003003600a2
:10223c001e00900030089000604088001e00900046
:10224c000081e8001e009000300890006a00b90080
:10225c008000780080e02000008040008200780040
:10226c00740a07000080fa00000006000200fa0061
:10227c0000408000e0009000010f780000408000da
:10228c0001408000b1089000e580100061009800ca
:10229c001e0078000080fa00000006000000fa0022
:1022ac00004080000000e00004003200004080008c
:1022bc00b01090008100e8003110980000408000c0
:1022cc000080fa00000006000800fa0020079800c1
:1022dc0031079800110a070000408000d0109000d0
:1022ec0040109000e00f5000e08f58000c003a00b6
:1022fc000040800011c0b300416898003e0090007f
:10230c000000e00006003200110020003e009000aa
:10231c006602070008270200000000000000000011
:10232c000b0a0700fd0907000040800040119000d7
:10233c00d0119000028fbe001e00be00e00f5000b6
:10234c00e08f58000f0032002e0090000000e000db
:10235c0005003200024080006000b8004011980077
:10236c005111980007003700024080000082eb00fa
:10237c008082eb003e004200ae804a004011980083
:10238c0051119800004080008040eb00416898009b
:10239c00ef0907001e00be000080fa0000000600d6
:1023ac000e00fa00889fbe008a9fbe00100798009e
:1023bc0021079800320798004307980054079800ab
:1023cc0065079800d5090700004080004068900020
:1023dc00e24f50001e003200044080004411900077
:1023ec00d41190001e009000ae0090000080ea0016
:1023fc008180ea0082027800030178008001780075
:10240c008100780003806200810061008105780002
:10241c00000578000a00be00401298005112980086
:10242c000040800011c0b300416898006e0090001d
:10243c000000e00006003200110020006e00900049
:10244c001a0207000827020000000000000000002c
:10245c00bf090700b10907005e0090000000e00012
:10246c000500320000408000d01090004010900019
:10247c005e0190000089be00004080004068900022
:10248c00e24f5000030032000000eb00000f780018
:10249c00140037000440800044119000d4119000c7
:1024ac003e009000ce0090000080ea008180ea009f
:1024bc0082027800030178008001780081007800a6
:1024cc0003806200810061008104780000047800c0
:1024dc000800be0040129800511298001000200015
:1024ec00000f7800004080008040eb0041689800ad
:1024fc00970907001e0078004f05be004f04be0070
:10250c000080fa00000006001000fa003007980066
:10251c0042079800530798006107980074079800c9
:10252c0010002000000f78003e0090000000e0003a
:10253c0008003a0011028000f0f12f0000806000ca
:10254c000050a000100288000000000000000000f5
:10255c00ffff3700be009000110798006f090700bd
:10256c007e0090000000e000050032001e0090008c
:10257c00d0109000401090007e0190000089be00a9
:10258c001e00900040699000424798001e00900089
:10259c0021c0b300416898006e009000e20f50001b
:1025ac0017003200e20f500005003e000000e00072
:1025bc003e003200e10f5000060032002b003700c5
:1025cc00e30f500017003200e40f50001b003200e4
:1025dc00260037001e00900040119000d011900092
:1025ec004e009000de0090000000710081807100b0
:1025fc001e01900040119800511198002e003700d8
:10260c001e009000d010900040109000610040001f
:10261c00e08048001e019000401198005111980074
:10262c00250037001e0090004e019000de01900046
:10263c0042109800531098001f0037004e40900035
:10264c00e24f5000060032001e0090004e01900038
:10265c00de019000421098005310980016003700cd
:10266c000000eb00000f7800130037001e009000f4
:10267c0040119000d01190000080eb008080eb00a6
:10268c00800f5100818f59000a0032001102800026
:10269c00f0f12f00008060000050a00010028800b4
:1026ac000000000000000000ffff370000000000e9
:1026bc0001003700000000004e409000e14f500038
:1026cc002a003a001e0090000080e800a9090700cb
:1026dc001e009000b008900060408000808f500079
:1026ec00030036001e009000300890006040880007
:1026fc001e0090000081e8001e0090003008900041
:10270c006a00b9008000780080e020000080400062
:10271c0082007800470907001e00900020089000f6
:10272c000000e0000800320011028000f0f12f00e0
:10273c00008060000050a000100288000000000023
:10274c0000000000ffff37001e009000b008900052
:10275c000040800030089000808f5000030036004d
:10276c00082702000000000000000000f808070025
:10277c001e0078000080fa00000006001400fa0029
:10278c00400798005207980063079800710798005b
:10279c00040f9800150f980010002000000f78000f
:1027ac004e0090000000e00008003a00110280008a
:1027bc00f0f12f00008060000050a0001002880093
:1027cc000000000000000000ffff3700ce0090006a
:1027dc00110798000000eb00200798000e089000ed
:1027ec000000e000050032001e009000d0109000a8
:1027fc00401090000e0990000089be001e00900051
:10280c0040699000624798001e00900021c0b30000
:10281c00416898007e009000e20f500017003200d3
:10282c00e20f500005003e000000e0003e003200c8
:10283c00e10f5000060032002b003700e30f500070
:10284c0017003200e40f50001b0032002600370046
:10285c001e00900040119000d01190005e0090007e
:10286c00ee00900000007100818071001e0190004c
:10287c0040119800511198002e0037001e00900056
:10288c00d01090004010900061004000e0804800a3
:10289c001e0190004011980051119800250037003e
:1028ac001e0090005e019000ee0190004210980016
:1028bc00531098001f0037006e409000e24f5000fc
:1028cc00060032001e0090005e019000ee019000a8
:1028dc004210980053109800160037000000eb00cf
:1028ec00000f7800130037001e009000401190007c
:1028fc00d01190000080eb008080eb00800f510025
:10290c00818f59000a00320011028000f0f12f0073
:10291c00008060000050a000100288000000000041
:10292c0000000000ffff370000000000010037002e
:10293c00000000006e409000e14f500038003a005b
:10294c001e009000200890000000e00008003200fb
:10295c0011028000f0f12f00008060000050a000f8
:10296c00100288000000000000000000ffff37008c
:10297c00e04080000000e00016003a001e009000cd
:10298c000080e800fb0807001e009000b0089000d3
:10299c0060408000808f5000030036001e009000c5
:1029ac0030089000604088001e0090000081e80014
:1029bc001e009000300890006a00b900800078007a
:1029cc0080e0200000804000820078009908070019
:1029dc00050037001e0090006c004000800078005d
:1029ec00e0e42000930807001e009000b00890005f
:1029fc000040800030089000808f500008003600a6
:102a0c001e0890000000e000030032001e08900039
:102a1c001100200001087800100020009040880070
:102a2c001e0078000080fa00000006000a00fa0080
:102a3c0030079800410798003e0090000000e0002d
:102a4c0008003a0011028000f0f12f0000806000b5
:102a5c000050a000100288000000000000000000e0
:102a6c00ffff3700be009000010f78000000eb0064
:102a7c00100798001e007800c0689000414798002d
:102a8c001e00780021c0b300416898001e00780039
:102a9c00d01090004010900061004000e080480091
:102aac001e01780040119800511198004e40900082
:102abc00e14f500036003a001e00780020089000cc
:102acc000000e0000800320011028000f0f12f003d
:102adc00008060000050a000100288000000000080
:102aec0000000000ffff3700e04080000000e00025
:102afc0014003a001e80e8009e0807001e007800b3
:102b0c00b008900060408000808f500003003600b9
:102b1c001e00780030089000604088001e81e8009c
:102b2c001e007800300890006a00b9008000780020
:102b3c0080e0200000804000820078003d08070003
:102b4c00050037009e0078006c8040008000780003
:102b5c00e0e42000370807001e007800b008900061
:102b6c000040800030089000808f50000800360034
:102b7c004e0090000000e000030032004e00900078
:102b8c0011002000010878001000200090408800ff
:102b9c000080fa00000006000600fa0020079800ea
:102bac002e0090000000e00002003a00004080007f
:102bbc00010037002e00900010079800d70707007f
:102bcc001e00900040689000e24f500006003a0052
:102bdc001e0090008040eb0041689800100020001f
:102bec00000f7800020037000000eb00000f7800a7
:102bfc00d70707001e0078000080fa0000000600ce
:102c0c000c00fa00889fbe0030079800420798001d
:102c1c00530798003e0090000000e00002003a00cc
:102c2c0000408000010037003e009000000f78004b
:102c3c00ba0707000040800040119000d0119000ae
:102c4c0012079800230798001e007800401190008e
:102c5c00d01190004e009000de0090000080ea0041
:102c6c008180ea000202780003017800800178007c
:102c7c00810078000300620081006100810478000b
:102c8c00000478000800be001e0178004011980076
:102c9c0051119800ae0707001e009000ae00900086
:102cac004f04be000080fa00000006000800fa0085
:102cbc00200798003107980051408000010f7800e0
:102ccc00004080000080e8002a0807002e009000d9
:102cdc00e10f400009003a003e0090000000e000c7
:102cec0006003200004080000080e8008000780080
:102cfc0020e62000cf070700180037002e009000b8
:102d0c001e00400010079800004080009e009000bc
:102d1c00110098001e0090009e0f5000050031001d
:102d2c00004080008080e80020408000df07070022
:102d3c000a003700004080008080e80010408000ce
:102d4c00da070700c04080009e009000808f500082
:102d5c00020031009e009000c14088000080fa0003
:102d6c00000006000600fa001007980021079800e2
:102d7c009e009000010f78001e0078000000e0001b
:102d8c0008003a0011028000f0f12f000080600072
:102d9c000050a0001002880000000000000000009d
:102dac00ffff37005d0707001e0078001001780058
:102dbc001e007800f00890001e00780000109000b3
:102dcc000088b90000007800800041001e007800e7
:102ddc00210098001e0078008000eb00610898002c
:102dec001e007800900078001e00780011009800fa
:102dfc001e007800100178001e007800700890000a
:102e0c008000e9001e007800001090000088b900d6
:102e1c0000007800800041001e007800310098000e
:102e2c001e00780080c0eb00216098001e00780026
:102e3c0080c0eb00316098002e0090000000e00094
:102e4c000d003a001e007800400090000000e000e9
:102e5c000f0032009e00780068804000a8fa07003e
:102e6c000000e0000a003200082702000000000009
:102e7c0000000000060037009e00780068804000cb
:102e8c004c0707009e00780072804000490707003d
:102e9c002f070700100020000080fa000000060039
:102eac000c00fa003007980041079800224f980058
:102ebc003e0090000000e00008003a001102800083
:102ecc00f0f12f00008060000050a000100288007c
:102edc000000000000000000ffff3700be00900063
:102eec004e0090000088b90000007800000f7800b8
:102efc00410220001e804000c50507001007980005
:102f0c001e0090000000e0000b0032009e009000bc
:102f1c00210798002e0090004002b0002007980076
:102f2c001e029000ae4990002e019000ce00900041
:102f3c003e009000030007001e0090000080fa0085
:102f4c00000006000a00fa00000f78001107980034
:102f5c002207980063479800440798001e009000d1
:102f6c000000e00004003a00ce0090004e009000fb
:102f7c000108780003003700ae0090004e0090006e
:102f8c00010878004e0090009e00780071089800af
:102f9c004e0090009e00900001109800110020003f
:102fac004e0090006fff07000080fa000000060042
:102fbc000200fa00000f78001e0078000000e0000c
:102fcc000e0032001e0078008000eb0021009800fb
:102fdc001e0078008000eb00010878001e007800cd
:102fec008000eb00310098008001eb000001eb0049
:102ffc008000eb001e0078003a0007000080fa0009
:10300c00000006000800fa0060479800100020003d
:10301c00000f78000000eb00100798006e41900044
:10302c009e0090001e0078009dff0700200798006e
:10303c002e009000deff07002e0090000080fa00aa
:10304c00000006000600fa001007980021079800ff
:10305c001e0090000000e00008003a001102800001
:10306c00f0f12f00008060000050a00010028800da
:10307c000000000000000000ffff3700ae009000d1
:10308c001e009000808f5000080036001102800056
:10309c00f0f12f00008060000050a00010028800aa
:1030ac000000000000000000ffff370022c0b3004a
:1030bc008000eb001e00900079ff0700000f7800e5
:1030cc001e0078000000e000030032001e007800b3
:1030dc00ae009000610898001e0078000080fa0095
:1030ec00000006001200fa005007980061079800d3
:1030fc0072079800030f98000000eb00000f780097
:10310c00de009000110798001e0090000000e00007
:10311c0008003a0011028000f0f12f0000806000de
:10312c000050a00010028800000000000000000009
:10313c00ffff37006e0090000000e00004003a0032
:10314c001e009000001090000000e00002003a0009
:10315c0010002000010037000000eb000000e00030
:10316c0008003a0011028000f0f12f00008060008e
:10317c000050a000100288000000000000000000b9
:10318c00ffff37000e089000e20f500004003a00d9
:10319c001e00900070089000e10f500002003a00f1
:1031ac0010002000010037000000eb000000e000e0
:1031bc0009003a0011028000f0f12f00008060003d
:1031cc000050a00010028800000000000000000069
:1031dc00ffff370000000000500607001e009000a3
:1031ec00e00890001e00900070089000808f500046
:1031fc00030039000e089000e20f50001b003a004b
:10320c000e099000ee0090001e009000ea030700eb
:10321c00200798001e009000100890000000e000ad
:10322c00090032001e00900072004000b4f9070043
:10323c000000e0000a003200082702000000000035
:10324c0000000000060037002e0090000000e00097
:10325c0003003200082702000000000000000000fc
:10326c003b060700100020003d0037007e00900058
:10327c000000e00003003a00350607000000eb00f8
:10328c00370037001e0078000000e00004003a0010
:10329c006600470033fa070010002000000f78008a
:1032ac002b060700f3f707001c0607001e00900012
:1032bc0020609000e14f400003003a001e00900097
:1032cc008040eb00216098001e0090003060900060
:1032dc00e14f400003003a001e0090008040eb00dc
:1032ec00316098001a060700ee00470066004700a0
:1032fc0026fa07000000e00015003a001e009000be
:10330c00940407000000e0000d003200fe00900065
:10331c001e0090006800400039f907001e00900064
:10332c0029040700d9f707000000e000a9ff3a00c4
:10333c00082702000000000000000000a6ff370074
:10334c001e00900020040700d0f70700a2ff3700f2
:10335c001e0090001c040700ccf707000000eb00d7
:10336c000080fa00000006001200fa0050079800d6
:10337c006107980072079800030f9800de00900018
:10338c00110798001e0090000000e00008003a00b1
:10339c0011028000f0f12f00008060000050a000ae
:1033ac00100288000000000000000000ffff370042
:1033bc006e0090000000e00004003a001e00900037
:1033cc00001090000000e00002003a001000200005
:1033dc00010037000000eb000000e00008003a009c
:1033ec0011028000f0f12f00008060000050a0005e
:1033fc00100288000000000000000000ffff3700f2
:10340c000e089000e20f500004003a001e009000dd
:10341c0070089000e10f500002003a0010002000ec
:10342c00010037000000eb000000e00008003a004b
:10343c0011028000f0f12f00008060000050a0000d
:10344c00100288000000000000000000ffff3700a1
:10345c000000eb00200798001e009000e008900090
:10346c001e00900070089000808f500003003900ff
:10347c000e089000e20f500025003a001e0090004c
:10348c00b0609000614798001e009000e00890002a
:10349c00410798000e099000ee0090001e0090006d
:1034ac00450307006e409000e14f400010003a00c9
:1034bc001e009000100890000000e0001100320087
:1034cc001e009000720040000df907000000e000a3
:1034dc000c0032007e0090000000e0000900320079
:1034ec007e009000110020000108780005003700d4
:1034fc006e4090000040e800804078001e00900074
:10350c003160980010002000000f78000200370096
:10351c000000eb00000f78001e0078000080fa001d
:10352c00000006000e00fa00500798006107980092
:10353c00de009000110798001e0090000000e000d3
:10354c0008003a0011028000f0f12f0000806000aa
:10355c000050a000100288000000000000000000d5
:10356c00ffff37001e009000001090000000e000ec
:10357c000800320011028000f0f12f000080600082
:10358c000050a000100288000000000000000000a5
:10359c00ffff37001e009000100078000000e000d4
:1035ac0004003a001e009000200090000000e00093
:1035bc0002003a0010002000010037000000eb0070
:1035cc000000e00008003a0011028000f0f12f002a
:1035dc00008060000050a000100288000000000075
:1035ec0000000000ffff37000000eb0020079800f0
:1035fc001e009000e0089000310798001e0090001b
:10360c00f00890003e009000808f500022003600a1
:10361c001e009000b0609000014f98003e0090009a
:10362c008000e8001e009000610898000e48900091
:10363c00e14f400010003a001e009000100890006e
:10364c000000e000110032001e00900072004000eb
:10365c00abf807000000e0000c0032006e00900098
:10366c000000e000090032006e0090001100200004
:10367c0001087800050037000e4890000040e80073
:10368c00804078001e0090003160980010002000ef
:10369c00000f7800020037000000eb00000f7800ec
:1036ac001e0078000080fa00000006001000fa00ee
:1036bc005007980061079800720798000000eb0013
:1036cc00000f7800de009000110798001e0090009b
:1036dc000000e00008003a0011028000f0f12f0019
:1036ec00008060000050a000100288000000000064
:1036fc0000000000ffff37006e0090000000e000ab
:10370c0004003a001e009000001090000000e00041
:10371c0002003a0010002000010037000000eb000e
:10372c000000e0000b003a0011028000f0f12f00c5
:10373c00008060000050a000100288000000000013
:10374c0000000000ffff3700000000000100370000
:10375c0000000000f10407001e009000e00890003b
:10376c00210798002e0090000000e00016003200a7
:10377c00ee0090001e009000f10207002e00900059
:10378c008000e9001e009000610898001e00900067
:10379c00400090000000e000080032001e00900085
:1037ac006800400056f807000000e00003003200fb
:1037bc00082702000000000000000000e4040700dd
:1037cc0010002000410037007e0090000000e00057
:1037dc0003003a00de0407000000eb003b0037005a
:1037ec001e0078000000e00004003a00660047006c
:1037fc00dcf8070010002000000f7800d40407004c
:10380c009cf60700c50407001e0090002060900085
:10381c00e14f400003003a001e0090008040eb0096
:10382c00216098001e00900030609000e14f400035
:10383c0003003a001e0090008040eb0031609800bd
:10384c00c3040700ee00470066004700cff80700ee
:10385c000000e00015003a001e0090001203070063
:10386c000000e0000d003200fe0090001e009000f1
:10387c0072004000e2f707001e009000d202070021
:10388c0082f607000000e000afff3a0008270200b4
:10389c000000000000000000aeff37001e0090008a
:1038ac00c902070079f60700aaff37001e00900036
:1038bc00c502070075f607001e009000fa0207000b
:1038cc000000e000a2ff32000000eb000080fa00d4
:1038dc00000006001200fa0070079800010f980013
:1038ec000000eb00000f7800fe009000210798000c
:1038fc000000eb00100798002e0090000000e00084
:10390c0008003a0011028000f0f12f0000806000e6
:10391c000050a00010028800000000000000000011
:10392c00ffff37002e009000001090000000e00018
:10393c000b00320011028000f0f12f0000806000bb
:10394c000050a000100288000000000000000000e1
:10395c00ffff3700000000000100370000000000ee
:10396c006e0407002e009000e008900031079800cc
:10397c003e0090000000e0001a0032003e00900073
:10398c008000e9002e009000610898002e00900045
:10399c00100078000000e00003003a003ffa070036
:1039ac00ae009000a00098002e0090004000900007
:1039bc000000e000080032002e009000680040007b
:1039cc00cff707000000e0000300320008270200d8
:1039dc0000000000000000005d0407001000200043
:1039ec00620037000e0890000000e0000e003a0064
:1039fc001e0090000000e000080032001102800060
:103a0c00f0f12f00008060000050a0001002880030
:103a1c000000000000000000ffff37004c0407000e
:103a2c000000eb00510037001e0078000000e000a1
:103a3c0004003a006a0047004af807001000200012
:103a4c00000f7800420407000af607003304070051
:103a5c002e00900020609000e14f400003003a00df
:103a6c002e0090008040eb00216098002e0090000a
:103a7c0030609000e14f400003003a002e009000af
:103a8c008040eb003160980031040700f0004700e3
:103a9c006a0047003df807000000e0001f003a00f4
:103aac002e009000800207000000e000170032009a
:103abc002e009000100078000000e00006003a0094
:103acc00160407002e00900020009000e2f807007a
:103adc00100798001e0407008e0890002e0090001e
:103aec007200400046f707002e00900036020700d7
:103afc00e6f507000000e00096ff3a0008270200f8
:103b0c00000000000000000095ff37002e00900020
:103b1c002d020700ddf5070091ff37002e00900005
:103b2c0029020700d9f507002e0090005e0207005d
:103b3c000000e00089ff32001e0090000000e00051
:103b4c0009003200f50307002e0090008a010700df
:103b5c00400798002e00900020009000ce009000ae
:103b6c005ef90700fa0307000000eb000080fa0082
:103b7c00000006001200fa00600798007107980018
:103b8c00020f98000000eb00000f7800ee00900090
:103b9c00110798001e0090000000e00008003a0099
:103bac0011028000f0f12f00008060000050a00096
:103bbc00100288000000000000000000ffff37002a
:103bcc007e0090000000e00004003a001e0090000f
:103bdc00001090000000e00002003a0010002000ed
:103bec00010037000000eb000000e0000b003a0081
:103bfc0011028000f0f12f00008060000050a00046
:103c0c00100288000000000000000000ffff3700d9
:103c1c00000000000100370000000000bf03070097
:103c2c001e009000e0089000210798002e009000e4
:103c3c000000e000180032001e009000b000900060
:103c4c0031079800fe0090001e009000bc01070098
:103c5c001e009000be009000310098001e009000e5
:103c6c00100890000000e000080032001e009000d8
:103c7c007200400022f707000000e0000300320051
:103c8c00082702000000000000000000b00307003d
:103c9c0010002000410037000e0890000000e000ea
:103cac0003003a00aa0307000000eb003b003700ba
:103cbc001e0078000000e00004003a006800470095
:103ccc00a8f7070010002000000f7800a0030700e1
:103cdc0068f50700910307001e009000206090001b
:103cec00e14f400003003a001e0090008040eb00c2
:103cfc00216098001e00900030609000e14f400061
:103d0c0003003a001e0090008040eb0031609800e8
:103d1c008f030700f0004700680047009bf707007f
:103d2c000000e00015003a001e009000de010700c4
:103d3c000000e0000d0032008e0890001e00900084
:103d4c0072004000aef607001e0090009e010700b6
:103d5c004ef507000000e000adff3a000827020016
:103d6c000000000000000000acff37001e009000b7
:103d7c009501070045f50700a8ff37001e009000cd
:103d8c009101070041f507001e009000c6010700d5
:103d9c000000e000a0ff32000000eb000080fa0001
:103dac00000006001000fa00500798006107980008
:103dbc0072079800de009000110798001e0090001a
:103dcc000000e00008003a0011028000f0f12f0022
:103ddc00008060000050a00010028800000000006d
:103dec0000000000ffff37006e0090000000e000b4
:103dfc0004003a001e009000001090000000e0004b
:103e0c0002003a0010002000010037000000eb0017
:103e1c000000e00008003a0011028000f0f12f00d1
:103e2c00008060000050a00010028800000000001c
:103e3c0000000000ffff37000000eb002007980097
:103e4c001e009000e0089000310798003e009000a2
:103e5c000000e000250032001e009000a0609000e1
:103e6c00014f9800ee0090001e00900034010700f6
:103e7c003e0090008000e9001e0090006108980050
:103e8c000e489000e14f400010003a001e009000d8
:103e9c00400090000000e000110032001e00900075
:103eac006800400096f607000000e0000c003200ad
:103ebc007e0090000000e000090032007e009000bf
:103ecc001100200001087800050037000e48900012
:103edc000040e800804078001e00900021609800af
:103eec0010002000000f7800020037000000eb00eb
:103efc00000f78001e0078000080fa000000060019
:103f0c000c00fa004007980051079800ce00900072
:103f1c00110798001e0090000000e00008003a0015
:103f2c0011028000f0f12f00008060000050a00012
:103f3c00100288000000000000000000ffff3700a6
:103f4c005e0090000000e00004003a001e009000ab
:103f5c00001090000000e00002003a001000200069
:103f6c00010037000000eb000000e00008003a0000
:103f7c0011028000f0f12f00008060000050a000c2
:103f8c00100288000000000000000000ffff370056
:103f9c001e009000001090000000e00008003a00a5
:103fac0011028000f0f12f00008060000050a00092
:103fbc00100288000000000000000000ffff370026
:103fcc000000eb00200798001e0090006008900095
:103fdc000000e0000c0032001e009000b0009000c9
:103fec0031079800de0090001e009000d4000700fe
:103ffc001e009000be0090003100980010002000c0
:10400c00000f7800020037000000eb00000f780072
:10401c001e0078000080fa00000006000400fa0080
:10402c00100798001e0090000000e00008003a0005
:10403c0011028000f0f12f00008060000050a00001
:10404c00100288000000000000000000ffff370095
:10405c00b20207001e009000e0089000010f7800eb
:10406c00bb0207001e0078000080fa00000006006a
:10407c000600fa0020079800ae009000010f7800af
:10408c001e0078000000e00008003a0011028000d9
:10409c00f0f12f00008060000050a000100288009a
:1040ac000000000000000000ffff37009b0207002b
:1040bc001e007800f00890001e0078006008900048
:1040cc000080500010079800a10207001e0090000d
:1040dc000080fa00000006000600fa002007980095
:1040ec00ae009000010f78001e0078000000e00088
:1040fc0008003a0011028000f0f12f0000806000ef
:10410c000050a00010028800000000000000000019
:10411c00ffff37001e007800e008900011079800a0
:10412c001e0090000080fa00000006000400fa0057
:10413c00100798009e009000010f78001e00780078
:10414c000000e00008003a0011028000f0f12f009e
:10415c00008060000050a0001002880000000000e9
:10416c0000000000ffff37001e0078009c010700d4
:10417c000080fa00000006000400fa001007980006
:10418c001e009000100890000000e00005003200b6
:10419c001e0090004008900010007800650f100081
:1041ac00020037000000eb00000f78001e007800c2
:1041bc000080fa00000006000a00fa0020079800b0
:1041cc0031079800420798000000eb00000f7800c0
:1041dc002e009000e0089000110798002e0090002f
:1041ec00001090000000e0000c003a002e0090003f
:1041fc00100078000000e0004a003a002e00900009
:10420c002000900062f70700000f78002e0090004d
:10421c008000eb0021009800420037004e00900017
:10422c000000e00019003a002e0090008010900071
:10423c002e0090001000900001017800be0090004c
:10424c0011f107002e009000900090002e009000bd
:10425c0000109000808040002e009000110098000b
:10426c002e009000900090002e00900020009000f6
:10427c00808f50002b0039002e00900090007800a9
:10428c002e00900011009800260037002e009000a0
:10429c00801090002e0090003000900001017800fa
:1042ac00be009000f8f007002e009000b0009000c7
:1042bc002e009000001090000000ea00808040006a
:1042cc002e009000310098002e009000b00090005d
:1042dc002e00900010007800808f500008003100f4
:1042ec002e009000a00090002e0090000010900076
:1042fc000000ea00808040002e0090003100980001
:10430c004e009000e20f500006003a001e00900094
:10431c000000e000030032001e0090000000e900e5
:10432c00100798001e0090008000e8002e009000fe
:10433c00610898001e0078000080fa00000006005a
:10434c000400fa00000f7800110798001e00780096
:10435c00001090000000e000190032001e007800f0
:10436c00b00090001e00780000109000808040008b
:10437c001e007800310098001e007800b0009000fc
:10438c001e00780020009000808f5000040039003f
:10439c001e007800900078001e0078003100980014
:1043ac001e007800801090001e00780030009000f5
:1043bc0001017800800078001e009000b2f0070028
:1043cc000080fa00000006000400fa0010079800b4
:1043dc00d20107001e009000b0609000014f7800e1
:1043ec000b0037001e009000100890000000e00049
:1043fc000b0032001e0090007200400040f50700d8
:10440c000000e000010032002ef607001e4fe9000c
:10441c001e4078000004e000f2ff3c000100370071
:10442c00000000001e00900080c0eb00316098007e
:10443c00c7010700b90107001e009000a0609000a2
:10444c00114798000d0037001e00900040009000ae
:10445c000000e0000d0032001e00900068004000db
:10446c0027f507000000e0000100320015f60700f8
:10447c001e4090000040e900104798001e4090003c
:10448c000004e000f0ff3c000100370000000000d9
:10449c001e00900080c0eb0021609800ac0107006a
:1044ac000080fa00000006000400fa0010079800d3
:1044bc009a0107001e009000600890000000e000c8
:1044cc0003003a0010002000000f780002003700b3
:1044dc000000eb00000f78009d0107001e00780023
:1044ec000080fa00000006000600fa002007980081
:1044fc00ae009000110798001e0090000000e00034
:10450c0008003a0011028000f0f12f0000806000da
:10451c000050a00010028800000000000000000005
:10452c00ffff37001e009000600890000000e000c4
:10453c0003003a0010002000000f78000200370042
:10454c000000eb00000f78001e0078000080fa00dd
:10455c00000006000400fa00100798006f01070025
:10456c001e009000e00890001e0090007008900063
:10457c00808f500003003a0010002000000f7800dc
:10458c00020037000000eb00000f780070010700fc
:10459c001e0078000080fa00000006000600fa00f9
:1045ac0020079800ae009000110798001e009000a4
:1045bc000000e00008003a0011028000f0f12f002a
:1045cc00008060000050a000100288000000000075
:1045dc0000000000ffff37001e009000e008900074
:1045ec001e00900070089000808f500003003a006d
:1045fc0010002000000f7800020037000000eb00d4
:10460c00000f78001e0078000080fa000000060001
:10461c000e00fa00600798000000eb0020079800dd
:10462c0014f30700304180000000e00003003a0062
:10463c009e00070010002000304188006e009000a2
:10464c000000e0000d003200201c8400ee00900001
:10465c0000804000600798006e00900061006000d0
:10466c00004078000004e000040032006e0090006e
:10467c000000a1000080e800600798006e00900028
:10468c000000e00052003200ee009000905d20002f
:10469c00808f50004e003e00e081200010079800f3
:1046ac00f1408000010f7800040037009e00780074
:1046bc00110798001e007800100f78001e0078007b
:1046cc00900090006e009000808f5000040031002c
:1046dc001e007800100078000000e000f3ff3a00a4
:1046ec00208220009e007800808f5000380032001d
:1046fc001e00900090007800201c84000080400078
:10470c00200798001e007800900078001e00900092
:10471c00010878001e007800900090006e00900058
:10472c0080805000201c840000004000808f5000ce
:10473c00220036006e0090001e00400040079800da
:10474c001e007800900090006e0090008080500059
:10475c004e009000110098001e007800ee009000b2
:10476c00110098004e0090009000900051079800a6
:10477c00e081200030079800030037003e009000d5
:10478c0090007800310798003e00900010007800ef
:10479c00900090005e009000808f5000f7ff390071
:1047ac003e009000900078004e00900001087800c8
:1047bc003e009000ce00900001087800414180003e
:1047cc001e007800100090000080500040418800ce
:1047dc00aef207002e0090000080fa0000000600e8
:1047ec000a00fa0040079800ce00900011079800cc
:1047fc004e0090000000e00023003200201c8400da
:10480c000000ea009e009000008040001007980015
:10481c009e0090002107980096f207002e00900051
:10482c009000900031079800e0812000000f780084
:10483c00020037001e007800100f78001e00780070
:10484c0010007800900090003e009000808f500087
:10485c00f8ff39001e007800900078002e009000c0
:10486c00010878001e007800ae0090000108780066
:10487c002e0090009000900040418000008040008d
:10488c004041880081f207000080fa000000060019
:10489c000000fa00404180000080fa000000060091
:1048ac000000fa000080fa00000006000400fa0084
:1048bc00e08220000000a100000f78001e007800ac
:1048cc00f04088002028ef00a05d200020418800e7
:1048dc002228ef009e007800110798001e0090001f
:1048ec00a15d2000110098001e0090002182200084
:1048fc00010878000080fa00000006002a00fa0087
:10490c00201798003117980042179800e4004700d0
:10491c00823528000f000900b2187800be109000f4
:10492c00110798002e1090001e01900002087800cc
:10493c002e1090000080e800201798002e10900098
:10494c008000eb00010878002e1090000080e80039
:10495c00201798002e1090008000eb0001087800c2
:10496c002e1090000080e80020179800ce109000c8
:10497c002e109000010878002e1090000080e800a6
:10498c00201798000000eb00000f78000a00370099
:10499c001e0078000000400000004700a0009000be
:1049ac002e109000010878002e1090000080e80076
:1049bc00201798001e0fe8001e007800ef0f500023
:1049cc00f3ff3600210280002e10900001087800c1
:1049dc002e1090000080e8002017980091018000b4
:1049ec002e109000010878002e1090000080e80036
:1049fc0020179800a10180002e109000010878006b
:104a0c002e1090000080e800201798002e109000c7
:104a1c008000eb00010878002e1090000080e80068
:104a2c00201798002e1090000080fa00000006005d
:104a3c000000fa0025000700004080009007780075
:104a4c004f007800504188003400f9003200f90022
:104a5c004400f9005400f9003600f9004f077800c3
:104a6c004f06be004f05be004f04be004f03be00f4
:104a7c004f02be004f01be004f00be004200f900c5
:104a8c0000000600100020000080fa000000060064
:104a9c000000fa0051418000803e2000808f5000c1
:104aac000800320011028000f0f12f00008060003d
:104abc000050a00010028800000000000000000060
:104acc00ffff37000080fa00000006000400fa0027
:104adc00f07c200001002000008fbe000421ef00bc
:104aec000021ef001e0078001008880021058000ce
:104afc00f0ff28000080600000c0a00020058800a6
:104b0c008460a9009460a8000481a80004a1a900f5
:104b1c0005e1a8000080fa00000006000000fa0081
:104b2c0011028000f0f12f00008060000050a00006
:104b3c0010028800000000000000000050418000be
:104b4c000000e800504188000080fa0000000600d8
:104b5c000000fa00504180000000e00008003a001c
:104b6c0011028000f0f12f00008060000050a000c6
:104b7c00100288000000000000000000ffff37005a
:104b8c00504180000000e9005041880050418000f5
:104b9c000000e00005003a0011028000f0f12f0047
:104bac000080600010028800000000000080fa0005
:104bbc00000006000200fa00000f78009e0078004a
:104bcc0064804000800078001e007800110098007e
:104bdc001e0078008080eb00210098009e00780079
:104bec0064804000800078001e007800310098003e
:104bfc009e00780064804000800078001e007800e1
:104c0c00410098001e0078008000eb00010878003d
:104c1c000080fa00000006000200fa00000f780085
:104c2c001e0078008000eb00410098000080fa0024
:104c3c00000006000600fa001007980021079800f3
:104c4c001e00900090009000010f78002e00900044
:104c5c009e007800110098001e007800a0009000c3
:104c6c002e009000210098001e007800200090007b
:104c7c00ae009000110098001e007800ae0090006d
:104c8c00210098002e0090009e009000410098009a
:104c9c001e009000100078008000e8001e009000bc
:104cac00010878000080fa00000006000800fa00f5
:104cbc0020079800310798003e0090009000780083
:104ccc00110798001e009000e10f400004003a000c
:104cdc002e009000c0009000010f78000d003700ee
:104cec002e00900064004000000f78000300370095
:104cfc001e00780090009000010f78001e007800d4
:104d0c0010009000900078001e009000808f5000e2
:104d1c00f7ff36001e007800900090003e009000d7
:104d2c00110098003e00900010009000be00900012
:104d3c00210098003e0090009e0078002100980011
:104d4c001e007800be009000110098003e009000fc
:104d5c00ae009000410098002e00900010007800ea
:104d6c008000e8002e009000010878000080fa0016
:104d7c00000006000400fa00100798001e009000c6
:104d8c00c0009000010f78001e00900010009000f1
:104d9c009e009000a1009000210098001e00900041
:104dac00200090009e00900091009000110098004f
:104dbc001e007800900090001e009000808f500024
:104dcc0004003a001e009000a00090001e00780025
:104ddc00110098001e0090008000eb00410098002c
:104dec001e007800100078008000e9001e0078009a
:104dfc00010878001e007800100078000080fa008e
:104e0c00000006004200f800801f7800000220001d
:104e1c0010028800811f7800829fbe00849fbe0014
:104e2c00869fbe00889fbe008a9fbe008c9fbe00de
:104e3c008e1f78003600f8005400f8004400f8008b
:104e4c003200f8003400f80050418000801f7800d8
:104e5c00004080000f0878008c0b0200000000005e
:104e6c0000408000900778004f0078005041880087
:104e7c003400f9003200f9004400f9005400f90044
:104e8c003600f9004f0778004f06be004f05be00f4
:104e9c004f04be004f03be004f02be004f01be00c8
:104eac004f00be004200f900000006000000fa00ae
:104ebc00f122a900f522a9008002eb0014002000c9
:104ecc008001eb00a20520008137280040772200ea
:104edc000bee0700b4f00700ffff37000200fa00ea
:104eec00000f7800a01780004900de0061406000d0
:104efc000004a200614060000080fb0061006000c3
:104f0c004900dd00a11780000190a1000100700094
:104f1c00a01788009002200029ef0700f1ff37004e
:020000040000fa
:104f2c002c080000dc050000800000001e080000ba
:104f3c000a000000800000002808000002000000a9
:104f4c0082000000da050000080e0000640000007a
:104f5c0080000000000800001e000000800000001f
:104f6c002a0800000200000082000000ef00000090
:044f7c000000000031
:020000040000fa
:020000040002f8
:04aff8007f7800005e
:020000040000fa
:020000040002f8
:04affc00ff3f000013
:00000001FF
